:020000040800F2
:10000000784400209D010008D11100086D0F000800
:10001000CF110008A90200089D1700080000000089
:10002000000000000000000000000000E1160008D1
:10003000AB02000800000000D3110008E31600081E
:10004000B7010008B7010008B7010008B7010008B0
:10005000B7010008B7010008B7010008B7010008A0
:10006000B7010008B7010008B7010008B701000890
:10007000B7010008B7010008B7010008B701000880
:10008000B7010008B7010008B7010008B701000870
:10009000B7010008B7010008B7010008B701000860
:1000A000B7010008B7010008B7010008B701000850
:1000B000B7010008B7010008B7010008B701000840
:1000C000B7010008B7010008B7010008B701000830
:1000D000B7010008B7010008B7010008B701000820
:1000E000B7010008B7010008B7010008B701000810
:1000F000B7010008B7010008B7010008B701000800
:10010000B7010008B7010008B7010008B7010008EF
:10011000B7010008B7010008B7010008B7010008DF
:10012000B7010008B7010008B7010008B7010008CF
:10013000B70100080000000000000000B70100083F
:10014000B7010008B7010008B7010008B7010008AF
:10015000B7010008B7010008B7010008B70100089F
:10016000B7010008B7010008B7010008B70100088F
:10017000B7010008B70100080000000000000000FF
:10018000B7010008B7010008DFF80CD000F07AF8DA
:1001900000480047DD1700087844002006488047E3
:1001A00006480047FEE7FEE7FEE7FEE7FEE7FEE75C
:1001B000FEE7FEE7FEE7FEE7811700088901000879
:1001C0002DE9F05F0546002092469B46884606468C
:1001D000814640241BE0284641464746224600F01F
:1001E00041F853465A46C01A914110D31146184659
:1001F000224600F028F82D1A67EB01084F462246E8
:100200000120002100F01FF817EB00094E41201ECD
:10021000A4F10104DFDC484631462A464346BDE8E6
:10022000F09FD2B201E000F8012B491EFBD27047CB
:100230000022F6E710B513460A4604461946FFF7B2
:10024000F0FF204610BD202A04DB203A00FA02F11C
:10025000002070479140C2F1200320FA03F31943B4
:1002600090407047202A04DB203A21FA02F0002156
:10027000704721FA02F3D040C2F1200291400843B6
:1002800019467047064C074D06E0E06840F0010350
:1002900094E8070098471034AC42F6D3FFF778FF94
:1002A0003054000850540008FEE7704770B504460B
:1002B00000F0EAF80546601C02D0044800780444C7
:1002C00000F0E2F8401BA042FAD370BD000000200D
:1002D0002DE9F84F00224FF0010803254FF00F0ED3
:1002E0000B6808FA02F42340A3426ED14E68012E37
:1002F00005D0022E03D0112E01D0122E12D1866805
:100300004FEA420C05FA0CF7BE43CF6807FA0CF728
:10031000374387604668A6430C79C4F300149440C1
:1003200034434460C668570005FA07FC8C6826EA27
:100330000C06BC403443C4604C68022C01D0122C23
:1003400013D1D40800EB8404A346D4F820905407BA
:100350004FEAD46A0EFA0AF629EA06090E6906FA85
:100360000AF646EA0906CBF8206006680C7926EA08
:100370000C0604F00304BC40344304604C68E40001
:1003800065D5364C266846F480462660246822F0FF
:10039000030604F480440094314C3444A446D4F859
:1003A00008489607370F0EFA07F6B4432D4EB042B1
:1003B00001D1002624E02C4EB04201D101261FE0DD
:1003C0002A4EB04202D102261AE040E0284EB04246
:1003D00001D1032614E0274EB04201D104260FE0DC
:1003E000254EB04201D105260AE0244EB04201D18B
:1003F000062605E0224EB04201D1072600E008267D
:10040000BE402643CCF808681E4E34684F689C43B3
:10041000FF0300D51C4334601A4C241D26684F6826
:100420009E43BF0300D51E432660164E083634682F
:100430004F689C43FF0200D51C433460114E0C36BC
:1004400034684F689C43BF0200D51C433460521C83
:10045000102AFFF445AFBDE8F88F00004438024091
:100460000030014000000240000402400008024049
:10047000000C02400010024000140240001802402C
:10048000001C0240003C01400148806870470000A9
:100490000000002070B5040025D094F83D00002530
:1004A00020B984F83C50204600F004FA242084F857
:1004B0003D002068016821F00101016020680168A9
:1004C00041F4004101602068016821F400410160AD
:1004D00000F04AFB4D4A6168914201D84C4900E066
:1004E0004C49884201D2012070BD4B492368B0FBC2
:1004F000F1F15E6826F03F060E435E60636893424A
:1005000006D94FF4967359434FF47A73B1FBF3F164
:100510002368491C1E6A26F03F0631431962616850
:10052000914210D84900401EB0FBF1F2521CC2F3B8
:100530000B02042A01D2042022E0B0FBF1F0401C9F
:10054000C0F30B001CE0A268F2B301EBC10303EBA4
:100550000116431EB3FBF6F35B1C43F480431B05FB
:1005600049D092B301EBC10202EB0111401EB0FB76
:10057000F1F0401CC0F30B0040F4804040F4004018
:100580002168CA694CF6FF739A431043C861D4E9E5
:10059000071001432068026822F0C0021143016085
:1005A000D4E9030101432068826848F2FF339A438B
:1005B00011438160D4E9050108432168CA6822F02B
:1005C000FF021043C86001E00EE016E020680168F9
:1005D00041F0010101602564202084F83D0025637D
:1005E00084F83E50002070BD01EB4106431EB3FB72
:1005F000F6F35B1CB3E70120C2E701EB4101401EAB
:10060000B0FBF1F0401CC0F30B00B7E7A08601007F
:1006100080841E0000093D0040420F002DE9FF4F7D
:1006200081B089460446FFF72FFF054694F83D0048
:100630004FF0010820287DD119230122504920467E
:10064000009500F01FFD002874D194F83C000128AB
:1006500070D0012084F83C0020680168C90703D1EC
:10066000016841F0010101602068016821F4006126
:100670000160242084F83D00002626644148E062A1
:100680004FF0011B20272068016841F48071016050
:100690000095002259462046049B00F0F3FC50B11F
:1006A00020680068C00502D54FF400702064032064
:1006B00005B0BDE8F08F216809F0FE000861FFF782
:1006C000E3FE2168054648694969C0F34000C1F36B
:1006D00080214FF0A00A0FE0FFF7D6FE411B0498DF
:1006E000814200D808B984F83DA021684869496969
:1006F000C0F34000C1F3802194F83D20A02A02D02D
:1007000008B90029E8D084F83D7020684169C943E0
:10071000890716D4016841F40071016020684169BD
:1007200080691923012216492046009500F0AAFC91
:10073000B8B900E021E084F83D7084F83C60002006
:10074000B6E7016841F40071016021686FF48060D0
:100750004861192301220A492046009500F092FCC5
:1007600008B10120A4E7039808F1010880458AD365
:1007700084F83D7084F83C60F3E7022098E70000BD
:10078000020010000000FFFF2DE9F84F1F469046C1
:100790008A460446DDF82890FFF776FE054694F871
:1007A0003D0020287FD11923012240492046009591
:1007B00000F068FC002876D194F83C00012872D043
:1007C000012084F83C0020680168C90703D1016852
:1007D00041F0010101602068016821F400610160BD
:1007E000212084F83D00102084F83E000026266475
:1007F000C4F824806785608D20852D48E0622B46F3
:100800004A465146204600F0C9FB90B9206841692C
:100810008069009036E02A464946204600F0B1FC47
:1008200050B1206C042804D12068016841F40071A3
:1008300001600120BDE8F88F606A216800780861D6
:10084000606A401C6062618D491E6185218D491E70
:1008500089B2218522685369DB435B070BD451B110
:1008600000781061606A401C6062608D401E608587
:10087000208D401E20852A464946204600F0DCFB9C
:100880000028CED1208D0028C5D154F83D0B016839
:1008900041F400710160202004F81E09E6776677B4
:1008A0000020C7E7FFE70220C4E7000002001000B5
:1008B0000000FFFF10B586B0044614216846FFF71C
:1008C000B7FC13492068884220D11248016841F0E2
:1008D000020101600068694600F002000590C02036
:1008E0000090122001900120029003200390042028
:1008F00004900948FFF7ECFC06481030016841F409
:1009000000110160006800F40010059006B010BDF1
:100910000054004030380240000402400248816820
:100920000278114481607047000000200B4810B528
:10093000016841F400710160016841F48061016067
:10094000016841F480710160032000F061F800202B
:1009500000F006F800F024F8002010BD003C024032
:1009600070B50D4D04464FF47A712878B1FBF0F064
:100970000A490968B1FBF0F000F0E4FA48B9102C1C
:1009800007D200222146501E00F022F800206C60A1
:1009900070BD012070BD0000000000200C00002090
:1009A0000A4808B5016841F480410160006800F41C
:1009B000804000900548001F016841F080510160AF
:1009C000006800F08050009008BD000044380240EC
:1009D000F0B40E4B1B680C46C3F30223C3F10705AA
:1009E000042D00D90425191D072901D2002300E098
:1009F000DB1E012606FA05F1491E214099409E4062
:100A0000761E16403143F0BC00F0C9BE0CED00E08C
:100A1000064900F0070208684FF6FF03184040EA55
:100A20000220034A10430860704700000CED00E00C
:100A30000000FA052DE9F0470E46050065D0DFF805
:100A40001481D8F80000F7B200F00F00B04207D2CE
:100A500088F80070D8F8000000F00F00B04254D1C0
:100A600028683D4C810712D5400703D5206840F423
:100A7000E05020602878000703D5206840F46040EB
:100A800020602068A96820F0F000084320602878E2
:100A9000C0072DD0304968680839012812D00228D3
:100AA00013D0032811D00968890700292DDA21689D
:100AB00021F0030101432160FFF7E6FC814641F28A
:100AC000883A0EE009688903EFE709688901ECE7D5
:100AD000FFF7DAFCA0EB0901514502D90320BDE87C
:100AE000F0872068696800F00C00B0EB810FEFD14F
:100AF000D8F80010404601F00F01B14207D9077045
:100B0000006800F00F00B04201D00120E7E728782C
:100B1000400705D52068E96820F4E05008432060CC
:100B20002878000706D52068296920F4604040EA4B
:100B3000C100206000F028F82168084AC1F30311C1
:100B4000515CC8400649086006480068FFF708FF86
:100B50000020C4E7003C024008380240BC460008C0
:100B60000C000020040000200448054900680968C2
:100B7000044AC1F38221515CC84070470C00002038
:100B800008380240CC460008154810B5006810F03F
:100B90000C02144813D04110042A0FD0082A0ED199
:100BA0000F4C241F2268236802F03F025B0207D526
:100BB0002068C0F38810A0FB010106E0084610BDC4
:100BC0002168C1F38811A1FB00010023FFF7F8FAA7
:100BD0002168C1F30141491C4900B0FBF1F010BD8F
:100BE000083802400024F4002DE9F84F04006ED0CC
:100BF0002078DFF83C93C007A9F104054AD009F139
:100C000004000168C1F38101012908D00068C0F324
:100C1000810002280AD1D9F80000400206D52868D0
:100C2000800337D560680028E1D033E06068B0F514
:100C3000803F10D0B0F5A02F286810D020F480306D
:100C40002860286820F4802028606068A8B1FFF739
:100C50001BFC06460DE0286840F48030F4E740F4C1
:100C600080202860F7E700BFFFF70EFC801B642898
:100C700073D828688003F7D50CE0FFF705FC06461B
:100C800005E000BFFFF700FC801B6428F0D828684F
:100C90008003F7D42078DFF89C8280074FF0000AA9
:100CA0003ED5A348001D016811F00C0F08D0006864
:100CB000C0F3810002280BD1D9F80000400207D40C
:100CC0002868800716D5E068012800D112E02BE1E2
:100CD000E068B8B10120C8F80000FFF7D5FB064670
:100CE00005E000BFFFF7D0FB801B0228C0D82868B2
:100CF0008007F7D52868216920F0F80040EAC10094
:100D000028600DE0C8F800A0FFF7BEFB064604E02F
:100D1000FFF7BAFB801B02281FD828688007F7D48A
:100D20002078000722D5824E83486169703671B100
:100D300001210160FFF7A8FB074604E0FFF7A4FBD1
:100D4000C01B022809D830688007F7D50EE0C0F82C
:100D500000A0FFF799FB074605E082E0FFF794FB50
:100D6000C01B02287DD830688007F7D42078400760
:100D700068D5DFF8BCB100270BF13C0BDBF80000B5
:100D8000C0000BD4DBF8001041F08051CBF800100C
:100D9000DBF80000012700F080500090674E3068BB
:100DA000C00510D4306840F480703060FFF76CFBF1
:100DB000009005E0FFF768FB0099401A022850D820
:100DC0003068C005F6D55A4EA0686C3601280FD0A1
:100DD0000528306810D020F001003060306820F025
:100DE00004003060A068B8B1FFF74EFB00900FE040
:100DF000306840F00100F4E740F004003060F7E7AD
:100E0000FFF742FB0099411A41F28830814266D8CF
:100E100030688007F4D50EE0FFF736FB009007E05E
:100E2000FFF732FB0099411A41F28830814256D8CF
:100E300030688007F4D42FB1DBF8001021F0805126
:100E4000CBF80010A069C8B33949091D0968C1F37E
:100E5000810102294AD00228504607D0C8F8600014
:100E600000E03CE0FFF710FB04463BE04746C8F8D3
:100E70006000FFF709FB064605E000BFFFF704FB33
:100E8000801B02282BD828688001F7D4D4E90701F9
:100E90000843A16A2A4A490802EB0141626A41EA11
:100EA0008211084394F82C1040EA0161C9F800103F
:100EB00001203866FFF7E8FA044606E036E000BF96
:100EC000FFF7E2FA001B022809D828688001F7D54D
:100ED0002CE000BFFFF7D8FA001B022802D903203C
:100EE000BDE8F88F28688001F4D41FE00128F7D00E
:100EF000D9F80000E26900F48001914214D1226A1D
:100F000000F03F0191420FD147F6C071626A014083
:100F1000914209D1A26A00F44031914204D1E16AC0
:100F200000F07060884201D00120D9E70020D7E7A7
:100F30000438024000004742800E474200700040E3
:100F40000000FFFF10B5401EB0F1807F01D30120EB
:100F500010BD4FF0E02460610F21601700F01FFC0E
:100F60000020A06107202061002010BDFEE701687D
:100F70004A69D24352050FD46FF480624A6100215E
:100F800040F8301F202242738173026942F004024C
:100F9000026101730120704700207047F8B50446D4
:100FA000C06A1E460D461746082807D0012805D0FE
:100FB00010F5803F02D0206B122804D12068016810
:100FC00041F480710160134600224FF00111204668
:100FD000009600F057F840B120680068C00502D5BF
:100FE0004FF4007020640320F8BD2069B0F5804FF5
:100FF0000ED00620216800EAD51040F0F00008610C
:1010000033463A460B49204600F070F878B902E0C2
:1010100005F0FE0000E0E8B22168086105493346AA
:101020003A46891F204600F061F80028DCD00120F4
:10103000F8BD00000800010070B516460D460446D4
:101040000DE02046FFF793FF08B1012070BD681C3A
:1010500005D0FFF719FA801BA84207D835B12068E0
:101060004069C0434007ECD4002070BD002044F824
:10107000300F20216173A073216941F020012161AB
:101080002073E2E72DE9F0471E4690460D460446E0
:10109000C1F30747DDF8209008E0701C06D0FFF789
:1010A000F3F9A0EB0900B0420FD876B12068012F08
:1010B00018D0806925EA00000004000C14D000213B
:1010C0004145EAD00020BDE8F087002044F8300F09
:1010D00020216173A073216941F0200121612073F7
:1010E0000120F0E74069E5E70121E9E72DE9F04754
:1010F0009A4691460E46044600254FF02008C1F35B
:10110000074725E020684069C043400514D42068A3
:10111000016841F40071016021686FF480604861EA
:10112000256384F83D8084F83E50206C40F0040034
:10113000206484F83C501FE0B9F1FF3F08D0FFF76E
:10114000A3F9A0EB0A0149450CD8B9F1000F09D069
:101150002068012F13D0806926EA00000004000CEB
:101160000BD0CFE744F8305F84F80D80A573206979
:1011700040F02000206125730120BDE8F087406920
:10118000EAE770B516460D4604460DE02046FFF727
:10119000EEFE08B1012070BD681C05D0FFF774F9A0
:1011A000801BA84207D835B120684069C0430006BB
:1011B000ECD4002070BD002044F8300F2021617372
:1011C000A073216941F0200121612073E2E7FEE76D
:1011D000FEE7704710B5002000F05EF8BDE8104053
:1011E00000F05ABA2DE9FF4F83468946D81DC11732
:1011F00000EB517000271D464FEAE00A3E46DDF83D
:10120000348024E000241AE0600702D07806070E3C
:1012100008E0E01704EB5071029800EBE10116FBC7
:101220000A100778380608D50E981FFA89F1C2B25D
:101230000BEB040080B200F00FF8641C24B2AC4247
:10124000E2DB761C09F1010036B20FFA80F946455F
:10125000D8DBBDE8FF8F000070B5802813D240298D
:1012600011D20B4B012401F007051E79AC40094B4C
:10127000C90800EBC1100EB132B101E0012A03D060
:10128000195CA143195470BD195C2143FAE70000B1
:10129000180000207400002028B1FF224FF4806164
:1012A0000248FEF7BEBF0022F8E7000074000020ED
:1012B000014A1080518070471800002010B500F0DE
:1012C000C7FB44F62063012278215448FFF7A6F9B2
:1012D00008B1002010BD40F6C210401EFDD1AE2264
:1012E0000021782000F0BAFB20220021782000F0B5
:1012F000B5FB10220021782000F0B0FBB0220021C5
:10130000782000F0ABFBC8220021782000F0A6FB7B
:1013100000221146782000F0A1FB10220021782045
:1013200000F09CFB40220021782000F097FB8122F6
:101330000021782000F092FBFF220021782000F0AD
:101340008DFBA1220021782000F088FBA62200213D
:10135000782000F083FBA8220021782000F07EFB9B
:101360003F220021782000F079FBA4220021782080
:1013700000F074FBD3220021782000F06FFB0022E4
:101380001146782000F06AFBD5220021782000F079
:1013900065FBF0220021782000F060FBD9220021BB
:1013A000782000F05BFB22220021782000F056FB21
:1013B000DA220021782000F051FB1222002178204F
:1013C00000F04CFBDB220021782000F047FB2022BC
:1013D0000021782000F042FB8D220021782000F0CF
:1013E0003DFB14220021782000F038FBAF220021C1
:1013F000782000F033FB2E220021782000F02EFB15
:101400000020FFF749FF00F047F90548002101805F
:10141000418001214171084610BD000020000020DC
:101420001800002008B1A72200E0A62200217820A1
:1014300000F014BB2DE9F047814625480D46924641
:1014400001882A781144802905D28046408869782D
:101450000844402802D30020BDE8F08700262AE097
:10146000A9F1200111FB00606A68002432F81070B5
:101470001DE000BF07FA04F0000409D5B8F8021017
:10148000B8F800003144204489B280B252460BE0E3
:10149000BAF1000F1AD00022B8F80210B8F8000014
:1014A0003144204489B280B2FFF7D6FE641C28780C
:1014B000A042DFD8761C6878B042D1D8B8F80010C6
:1014C0002A7848461144A8F80010C5E70122E3E74E
:1014D0001800002070B515460E46044609E02A465D
:1014E0003146FFF7A7FF2178884201D0C8B270BD0E
:1014F000641C20780028F2D1C0B270BD70B50C46D3
:10150000054627220021782000F0A8FA0022114683
:10151000782000F0A3FA2A460021782000F09EFAF5
:1015200000221146782000F099FA22460021782006
:1015300000F094FA00221146782000F08FFAFF2282
:101540000021782000F08AFABDE870402F220021A7
:10155000782000F083BA70B50C460546262200219B
:10156000782000F07BFA00221146782000F076FA0D
:101570002A460021782000F071FA002211467820D6
:1015800000F06CFA22460021782000F067FA002271
:101590001146782000F062FAFF220021782000F046
:1015A0005DFABDE870402F220021782000F056BA85
:1015B00070B50C460546A3220021782000F04EFAB3
:1015C00000221146782000F049FA402200217820BC
:1015D00000F044FA2A220021782000F03FFA00228D
:1015E0001146782000F03AFA2A460021782000F0CF
:1015F00035FA00221146782000F030FA2246002108
:10160000782000F02BFA01220021782000F026FA41
:10161000BDE870402F220021782000F01FBA70B57D
:101620000C460546A3220021782000F017FA00227C
:101630001146782000F012FA40220021782000F0B4
:101640000DFA29220021782000F008FA0022114624
:10165000782000F003FA2A460021782000F0FEF9F5
:1016600000221146782000F0F9F922460021782066
:1016700000F0F4F901220021782000F0EFF9BDE834
:1016800070402F220021782000F0E8B92E2200219E
:10169000782000F0E3B9000070B5104D002400BFC1
:1016A00004F1B000C2B20021782000F0D7F9002286
:1016B0001146782000F0D2F910220021782000F0A5
:1016C000CDF905EBC41280234021782000F0DAF92F
:1016D000641CE4B2082CE3D370BD00007400002049
:1016E0007047FFF71BB9000030B593B03021684652
:1016F000FEF79EFD14210CA8FEF79AFD1E4800255A
:10170000016841F080510160006800F08050119044
:101710001A48016841F4804101600068022400F425
:101720008040119001200090000401908001CDE9DB
:101730000640082008904FF4A870CDE90904042061
:101740000B906846FFF750FA08B172B6FEE70CA995
:101750000F2081E831004FF4A0500F904FF48050DB
:10176000109005210CA8FFF765F9002801D072B68A
:10177000FEE713B030BD000040380240007000406A
:101780000548016841F47001016003494FF00060B1
:10179000803908607047000088ED00E0FEE7090727
:1017A000090E002804DB00F1E02080F800147047E7
:1017B00000F00F0000F1E02080F8141D704702E0F7
:1017C00008C8121F08C1002AFAD1704770470020CC
:1017D00001E001C1121F002AFBD170471CB5FFF7C1
:1017E000A5F8FFF781FF85480021026842F08002DA
:1017F0000260026802F080020092026842F0020277
:10180000026000687E4A00F0020000907D4802609D
:101810007D4AC0E90121F022C2604FF48042C0E954
:1018200004218161C1610162FEF734FE08B172B624
:10183000FEE7FFF743FD40F6B830FEF737FD002125
:101840000846FFF735FD0122704971A0FFF742FEFF
:101850001E210A20FFF72CFD01226C496EA0FFF724
:1018600039FEFFF719FF4FF4FA663046FEF71EFD0A
:1018700007210020FFF76FFE3046FEF717FD072116
:101880000020FFF73BFE3046FEF710FDFFF7FEFE9F
:10189000FFF7A0FC01244025CDE90054002180235E
:1018A000604A0846FFF79EFCFFF7F6FE3046FEF75B
:1018B000FDFC0F210020FFF74EFE3046FEF7F6FC40
:1018C0000F210020FFF71AFE3046FEF7EFFC0F2134
:1018D0000020FFF7A4FE3046FEF7E8FC0F210020B1
:1018E000FFF766FE3046FEF7E1FCFFF7CFFE012072
:1018F000FFF798FD3046FEF7D9FC0020FFF792FD78
:101900003046FEF7D3FC00BFFFF764FCCDE900547E
:1019100000218023444A0846FFF764FCFFF7BCFE21
:10192000FFF758FCCDE90054002180233F4A0846C8
:10193000FFF758FCFFF7B0FEFFF74CFCCDE9005471
:10194000002180233A4A0846FFF74CFCFFF7A4FE2B
:10195000FFF740FCCDE9005400218023354A0846BA
:10196000FFF740FCFFF798FEFFF734FCCDE9005489
:1019700000218023304A0846FFF734FCFFF78CFE35
:10198000FFF728FCCDE90054002180232B4A0846AC
:10199000FFF728FCFFF780FEFFF71CFCCDE90054A1
:1019A00000218023264A0846FFF71CFCFFF774FE3F
:1019B000FFF710FCCDE9005400218023214A08469E
:1019C000FFF710FCFFF768FEFFF704FCCDE90054B9
:1019D000002180231C4A0846FFF704FCFFF75CFE49
:1019E000FFF7F8FBCDE9005400218023174A084691
:1019F000FFF7F8FBFFF750FE86E7000030380240A3
:101A00000054004020000020801A06001000002032
:101A100048454C4C4F0000002020574F524C44206A
:101A20003A290000BC1A0008BC1E0008BC220008AD
:101A3000BC260008BC2A0008BC2E0008BC320008E6
:101A4000BC360008BC3A0008BC3E0008BC42000896
:101A50000148401EFDD1704790D003007CB505467B
:101A60008DF804108DF805200A24022301AA2946C6
:101A700003480094FEF788FE0028F6D17CBD0000E4
:101A80002000002070B5C2B000248DF8041001A918
:101A900004E0155D0E19641C7570E4B29C42F8D325
:101AA0000A2100915B1C01469BB201AA0248FEF785
:101AB0006BFE42B070BD000020000020000000005E
:101AC0000000000000000000000000000000000016
:101AD0000000000000003FC0000000000000000007
:101AE0000000000000007FE0000000000000000097
:101AF00000000001C000FFF0000000000000000036
:101B00000000007FFF00FFF0000000000000000068
:101B1000000001E001E1FFF800000000000000000B
:101B200000000F000031FFF800000000000000007E
:101B300000001E000011FFF800000000000000007F
:101B400000007FE003F9FFF000000000000000004B
:101B50000000F03C1F00FFF000000000000000004B
:101B60000001C007F000FFF00000000000000000CE
:101B70000003C003E0007FE0000000000000000060
:101B80000006600770001F800000000000000000D9
:101B9000000E300C1C0000000000000000000000DF
:101BA000000E1838060000000000000000000000D1
:101BB000001C0C700300100000000000000000007A
:101BC000001C07C001C01E00000000000000000053
:101BD0000034038000601B000000000000000000D3
:101BE0000024038000301B00000000000000000003
:101BF000006606E000181100000000000000000070
:101C000000660C70000C1180000000000000000055
:101C1000004218380004318000000000000000007D
:101C20000043300C0006308000000000000000007F
:101C300000C3200600032080000000000000000018
:101C400000C1E0030001E08000000000000000008F
:101C500000C1C0018000C080000000000000000042
:101C600000C0C000C000C0800000000000000000F4
:101C700000C1C0006001C080000000000000000042
:101C800000C1E0003001E080000000000000000022
:101C900000C3300018032080000000000000000096
:101CA000004310000C06318000000000000000001E
:101CB00000421800060C3180000000000000000007
:101CC00000660C0003981180000000000000000076
:101CD0000066060001F0190000000000000000008E
:101CE0000024030000F01B000000000000000000C2
:101CF0000034018000F01A00000000000000000025
:101D0000001C00E001981E00000000000000000020
:101D100000000070030C1C00000000000000000028
:101D2000000000180E061C0000000000000000006B
:101D30000000000E18031800000000000000000062
:101D400000FE0003F001B0000000000000000000F1
:101D500001FF8003E000E000000000000000000040
:101D600003FF800F7800C0000000000000000000AA
:101D700007FFC0FC0FCF8000000000000000000043
:101D800007FFC7C001FF00000000000000000000C6
:101D900007FFC600001C000000000000000000005B
:101DA00007FFC7800078000000000000000000006E
:101DB00007FFC1F007C000000000000000000000A5
:101DC00007FFC03FFE000000000000000000000010
:101DD00003FF800000000000000000000000000081
:101DE00001FF0000000000000000000000000000F3
:101DF000007E000000000000000000000000000065
:101E000000000000000000000000000000000000D2
:101E10000000000000000000000000000F0F8C27F1
:101E2000F7E1F0C181F9F0FBF9F0F18C1939CE211D
:101E3000C63398C181819980E181918C3030CF2067
:101E400086330CC181818D804103018C30304F205D
:101E500086320CC181F198F041F301FC30304DE045
:101E600087E20CC18181F018438301FC3030CCE063
:101E700086630CC18181B00C4103018C1D9FCC6035
:101E80008663F8FDF9F999D841F1D98C0F0F0C2030
:101E90008630F0FDF9F98CF041F0F18C0000000083
:101EA0000000000000000000000000000000000032
:101EB0000000000000000000000000000000000022
:101EC0000000000000000000000000000000000012
:101ED0000000000000000000000000000000000002
:101EE00000000000000000000000000000000000F2
:101EF00000000000000000000000000000000000E2
:101F000000000000000000000000000000000000D1
:101F100000000000000000000000000000000000C1
:101F200000000000000000000000000000000000B1
:101F300000000000000000000000000000000000A1
:101F40000000000000000000000000000000000091
:101F50000000000000000000000000000000000081
:101F60000000000000000000000000000000000071
:101F70000000000000000000000000000000000061
:101F80000000000000000000000000000000000051
:101F90003FF8600000000000000000000000001F8B
:101FA000FFFFF00000000000000000000000007FC4
:101FB000FFFFC0000000000000000000000005FF5F
:101FC000FFFFE400000000000000000000000FFF21
:101FD000FFFF8000000000000000000000000F0074
:101FE0000FFF0000000000000000000000000600DD
:101FF00000FF8000000000000000000000001860EA
:10200000001FF800000000000000000000003C7805
:102010000007800000000000000000000000306E9B
:1020200000000000000000000000000000005073ED
:1020300080000000000000000000000000008000A0
:10204000C00005FF0037F000001F80000001000005
:10205000FC0000000007FF8003F0300000000800D3
:10206000380000000000BFFFFFE004000001900006
:1020700060000000000087FFFFFE00000001E0009C
:1020800060000000000001FFFFFFC00000004000F2
:10209000600600000000001FFC00080000000000B7
:1020A000E0060000100080000000000000000000BA
:1020B0006006000030018000000000000000000009
:1020C0007006000030070000000000000000000063
:1020D0007FC60000E00F0000000000000000000FBD
:1020E00081CC0010E0380000000000000000000F6C
:1020F000C008860000600000000000000000001F13
:10210000F620000021C00000000000000000001FB9
:10211000C000000000000000000000000000003EC1
:10212000000000000401000000000000000000F8B2
:10213000000000004800000000000000000001F066
:1021400000000000700000000000000000000720F8
:1021500000000000F00078000000000000003C38A3
:1021600000000000F000780000000000000078305F
:1021700000000001C0007800000000000001E00045
:102180000000000380007000000000000003C00099
:1021900000000006000070000000000000000000C9
:1021A0000000001C000030000000000000000000E3
:1021B0000000003C000030000000000000000000B3
:1021C0000000007800007000000000000000000027
:1021D000000001E00000F00000000000000000002E
:1021E000000003C00003F000000000000000000039
:1021F0000000060000078000000000000000000052
:1022000000000000000000000000000000000000CE
:1022100000000000000000000000000000000000BE
:1022200000000000000000000000000000000000AE
:10223000000000000000000000000000000000009E
:10224000000000000000000000000000000000008E
:10225000000000000000000000000000000000007E
:10226000000000000000000000000000000000006E
:10227000000000000000000000000000000000005E
:10228000000000000000000000000000000000004E
:10229000000000000000000000000000000000003E
:1022A000000000000000000000000000000000002E
:1022B000000000000000000000000000000000001E
:1022C000000000000000000000000000000000000E
:1022D00000000000000000000000000000000000FE
:1022E00000000000000000000000000000000000EE
:1022F00000000000000000000000000000000000DE
:1023000000000000000000000000000000000000CD
:1023100000000000000000000000000000000000BD
:1023200000000000000000000000000000000000AD
:10233000000000000000000000000000000000009D
:10234000000000000000000000000000000000008D
:10235000000000000000000000000000000000007D
:10236000000000000000000000000000000000006D
:10237000000000000000000000000000000000005D
:10238000000000000000000000000000000000004D
:102390003FF8600000000000000000000000001F87
:1023A000FFFFF00000000000000000000000007FC0
:1023B000FFFFC0000000000000000000000005FF5B
:1023C000FFFFE400000000000000000000000FFF1D
:1023D000FFFF8000000000000000000000000F0070
:1023E0000FFF0000000000000000000000000600D9
:1023F00000FF8000000000000000000000001860E6
:10240000001FF800000000000000000000003C7801
:102410000007800000000000000000000000306E97
:1024200000000000000000000000000000005073E9
:10243000800000000000000000000000000080009C
:10244000C00005FF0037F000001F80000001000001
:10245000FC0000000007FF8003F0300000000800CF
:10246000380000000000BFFFFFE004000001900002
:1024700060000000000087FFFFFE00000001E00098
:1024800060000000000001FFFFFFC00000004000EE
:10249000600600000000001FFC00080000000000B3
:1024A000E0060000100080000000000000000000B6
:1024B0006006000030018000000000000000000005
:1024C000700600003007000000000000000000005F
:1024D0007FC60000E00F0000000000000000000FB9
:1024E00081CC0010E0380000000000000000000F68
:1024F000C008860000600000000000000000001F0F
:10250000F620000021C00000000000000000001FB5
:10251000C000000000000000000000000000003EBD
:10252000000000000401000000000000000000F8AE
:10253000000000004800000000000000000001F062
:1025400000000000700000000000000000000720F4
:1025500000000000F00078000000000000003C389F
:1025600000000000F000780000000000000078305B
:1025700000000001C0007800000000000001E00041
:102580000000000380007000000000000003C00095
:1025900000000006000070000000000000000000C5
:1025A0000000001C000030000000000000000000DF
:1025B0000000003C000030000000000000000000AF
:1025C0000000007800007000000000000000000023
:1025D000000001E00000F00000000000000000002A
:1025E000000003C00003F000000000000000000035
:1025F000000006000007800000000000000000004E
:1026000000000000000000000000000000000000CA
:1026100000000000000000000000000000000000BA
:1026200000000000000000000000000000000000AA
:10263000000000000000000000000000000000009A
:10264000000000000000000000000000000000008A
:10265000000000000000000000000000000000007A
:10266000000000000000000000000000000000006A
:10267000000000000000000000000000000000005A
:10268000000000000000000000000000000000004A
:10269000000000000000000000000000000000003A
:1026A000000000000000000000000000000000002A
:1026B000000000000000000000000000000000001A
:1026C000000000000000000000000000000000000A
:1026D00000000000000000000000000000000000FA
:1026E00000000000000000000000000000000000EA
:1026F00000000000000000000000000000000000DA
:1027000000000000000000000000000000000000C9
:1027100000000000000000000000000000000000B9
:1027200000000000000000000000000000000000A9
:102730000000000000000000000000000000000099
:102740000000000000000000000000000000000089
:102750000000000000000000000000000000000079
:102760000000000000000000000000000000000069
:102770000000000000000000000000000000000059
:102780000000000000000000000000000000000049
:102790000006000000000000000000000000000033
:1027A0000FFFB00000000000000000000000007FEC
:1027B000FFFC00000000000000000000000001FF1E
:1027C000FFF81FC0000000000000000000000FFF25
:1027D000FFFFF800000000000000000000001FE004
:1027E0001FFFC000000000000000000000001E836A
:1027F000887F8000000000000000000000003C0016
:10280000000FF00000000000000000000000F8FAD7
:102810000003870000000000000000000000F8FE38
:102820000000C00000000000000000000001E0E720
:1028300006003000000000000000FF00000100035F
:10284000CE0007800FF7FFF0000FFC00000202002F
:10285000DC00007FC007FFFFF1FF800000041800CC
:10286000780000000000DFFFFFFC000000074000D0
:1028700030000000000043FFFFF000000003C00034
:10288000200004001800603FFF800000000180006D
:102890005FFFFF00187FA003E000000000000000C1
:1028A0007FEFFF801CFFA000000000000000000080
:1028B000601C00000C006000000000000000000030
:1028C0003F1800000E00E000000000000000003F84
:1028D000C03800000601E0000000000000000078A1
:1028E000003C0005FE21A00000000000000000E305
:1028F000FCA3E7F01FFFD0000000000000000180F3
:102900003F80180001830800000000000000030061
:102910004200000000C306000000000000000F009D
:10292000C40000000023FCF00000000000001E00B6
:1029300090000000001103F00000000000001C01E6
:1029400020000000000D00F80000000000007C01E5
:1029500080000000000780380000000000007003C5
:10296000800000000007C018000000000000000701
:10297000000000000007C00C000000000000000E76
:10298000000000000007C00C000000000000001C58
:10299000000000000007800E00000000000000386A
:1029A000000000000007000E0000000000000070A2
:1029B00000000000000E000E00000000000001E01A
:1029C00000000000001E000E000000000000078054
:1029D00000000000003C001E00000000000000009D
:1029E0000000000001FC003E0000000000000000AC
:1029F000000000000F800038000000000000000010
:102A0000000000001F0000000000000000000000A7
:102A100000000000000000000000000000000000B6
:102A200000000000000000000000000000000000A6
:102A30000000000000000000000000000000000096
:102A40000000000000000000000000000000000086
:102A50000000000000000000000000000000000076
:102A60000000000000000000000000000000000066
:102A70000000000000000000000000000000000056
:102A80000000000000000000000000000000000046
:102A90000000000000000000000000000000000036
:102AA0000000000000000000000000000000000026
:102AB0000000000000000000000000000000000016
:102AC0000000000000000000000000000000000006
:102AD00000000000000000000000000000000000F6
:102AE00000000000000000000000000000000000E6
:102AF00000000000000000000000000000000000D6
:102B000000000000000000000000000000000000C5
:102B100000000000000000000000000000000000B5
:102B200000000000000000000000000000000000A5
:102B30000000000000000000000000000000000095
:102B40000000000000000000000000000000000085
:102B50000000000000000000000000000000000075
:102B60000000000000000000000000000000000065
:102B70000000000000000000000000000000000055
:102B80000000000000000000000000000000000045
:102B90000000000000000000000000000000000035
:102BA0000000000000000000000000000000007FA6
:102BB000F01DC000000000000000000000001FFF2A
:102BC000FFFF0000000000000000000000001FFFE9
:102BD000FFFFF000000000000000000000001F8068
:102BE0003FFFFFC0000000000000000000001E8347
:102BF00088FFE0000000000000000000000078C036
:102C0000001FF80000000000000000000000F1E2DA
:102C10000003E60000000000000000000001F1F8E1
:102C20000000600000000000000000000003418F71
:102C30000C00180000000000000000000006000367
:102C40008C0007800001FFFF80000800000C0200DC
:102C5000F800000FC03FFFFFF0183000000E4000EA
:102C6000300000000000FFFFFFE1C000000F800007
:102C70003000000000003FFFFFFF00400007800021
:102C8000200004000000103FFFFE1E0000000000B6
:102C90005FFDFF00007FF000FFFFE000000000008C
:102CA0007FEFFF8000FFF000000000000000000048
:102CB000401C0000000010000000000000000000A8
:102CC00070180000018018000000000000000000E3
:102CD00060300000018018000000000000000001CA
:102CE000807E0000F1C01C00000000000000000712
:102CF000FFFDF5FE0FFFEE000000000000000028C1
:102D0000FBE80E0000100F80000000000000007EB5
:102D100001080000000C070E00000000000001E0A8
:102D200001100000000303FF000000000000070086
:102D300001100000000041CF0000000000003C0036
:102D400001900000000011E3800000000001F80085
:102D500000A00000000007E1C00000000007E00044
:102D600000E00000000003E0E0000000001F0000A1
:102D700000E00000000001E0700000000000000022
:102D800000E00000000000E03C0000000000000047
:102D900000C00000000000E00FC0000000000000C4
:102DA00000C00000000000E007E00000000000009C
:102DB000008000000000007000E000000000000043
:102DC0000180000000000070000000000000000012
:102DD00001800000000000780000000000000000FA
:102DE00003800000000003C000000000000000009D
:102DF0001F00000000000F000000000000000000A5
:102E00003E00000000001F00000000000000000065
:102E100000000000000000000000000000000000B2
:102E200000000000000000000000000000000000A2
:102E30000000000000000000000000000000000092
:102E40000000000000000000000000000000000082
:102E50000000000000000000000000000000000072
:102E60000000000000000000000000000000000062
:102E70000000000000000000000000000000000052
:102E80000000000000000000000000000000000042
:102E90000000000000000000000000000000000032
:102EA0000000000000000000000000000000000022
:102EB0000000000000000000000000000000000012
:102EC0000000000000000000000000000000000002
:102ED00000000000000000000000000000000000F2
:102EE00000000000000000000000000000000000E2
:102EF00000000000000000000000000000000000D2
:102F000000000000000000000000000000000000C1
:102F100000000000000000000000000000000000B1
:102F200000000000000000000000000000000000A1
:102F30000000000000000000000000000000000091
:102F40000000000000000000000000000000000081
:102F50000000000000000000000000000000000071
:102F60000000000000000000000000000000000061
:102F70000000000000000000000000000000000051
:102F80000000000000000000000000000000000041
:102F90000000000000000000000000000000000031
:102FA000000000000000000000000000000003FF1F
:102FB000F0000000000000000000000000000FFF13
:102FC000FF800000000000000000000000001FFF64
:102FD000FFFFF000000000000000000000001FFFE5
:102FE000FFFFF000000000000000000000001E389D
:102FF0003FFFFE0000000000000000000000700025
:1030000000FF888000000000000000000000F1E0E8
:103010000C5FC00000000000000000000001F1F0A3
:103020001C4B80000000000000000000000381BC79
:103030000C00400000000000000000000000023F03
:10304000000218001F800007F80000000018180791
:10305000D80001001001FFFFFF800000001C0000ED
:10306000F8000008100027FFFFE00000001F00002C
:10307000744A10281488007FFFFC0000000600003E
:103080002000000000001018FFFFF000000000000A
:1030900028000000000010000007F0000000000001
:1030A0004858000816001000000000000000000052
:1030B0004C5B081C3690100000000000000000006F
:1030C0004C7209181790000000000000000000007A
:1030D0007C30000803000000000000000000000039
:1030E000783000031F800300000000000000000093
:1030F0004C3E00C00040001800000000000000002E
:1031000080FFC000000F801C0000000000000001D4
:103110000B108000000003BC000000000000000154
:10312000040840000000003E000000000000000213
:10313000100040000000001E00000000000000041D
:10314000400220000000000F000000000000000905
:10315000000120000000000F800000000000001EA1
:103160000000900000000007C00000000000003CCC
:103170000000780000000007F00000000000007070
:103180000000380000000007FC000000000000C044
:103190000000380000000007FE000000000007806B
:1031A00000001800000000078000000000000F0071
:1031B00000000C0000000001C000000000007800CA
:1031C00000000E0000000000F00000000000F80009
:1031D0000000070000000000F000000000000000F8
:1031E00000000F00000000003000000000000000A0
:1031F00000003E0000000000000000000000000091
:1032000000007C0000000000000000000000000042
:1032100000000000000000000000000000000000AE
:10322000000000000000000000000000000000009E
:10323000000000000000000000000000000000008E
:10324000000000000000000000000000000000007E
:10325000000000000000000000000000000000006E
:10326000000000000000000000000000000000005E
:10327000000000000000000000000000000000004E
:10328000000000000000000000000000000000003E
:10329000000000000000000000000000000000002E
:1032A000000000000000000000000000000000001E
:1032B000000000000000000000000000000000000E
:1032C00000000000000000000000000000000000FE
:1032D00000000000000000000000000000000000EE
:1032E00000000000000000000000000000000000DE
:1032F00000000000000000000000000000000000CE
:1033000000000000000000000000000000000000BD
:1033100000000000000000000000000000000000AD
:10332000000000000000000000000000000000009D
:10333000000000000000000000000000000000008D
:10334000000000000000000000000000000000007D
:10335000000000000000000000000000000000006D
:10336000000000000000000000000000000000005D
:10337000000000000000000000000000000000004D
:10338000000000000000000000000000000000003D
:103390000000000000000000000000000000007CB1
:1033A000000000000000000000000000000001FF1D
:1033B000800000000000000000000000000003FF8B
:1033C000F80000000000000000000000000007FFFF
:1033D000FFFE0000000000000000000000000F8061
:1033E000FFFFC7C0000000000000000000003E8397
:1033F00087FFFC00000000000000000000007CE0EF
:1034000000FFF80000000000000000000000FCF2D7
:10341000001FC2000000000000000000000180F852
:103420000003E00000000000000000000002009E19
:103430000000E0000000000000000000000C030F8E
:1034400080001C01800FFFFFFFF800000006B003A2
:10345000C00000700000FFFFFFFF000000078000B9
:10346000EC000000000047FFFFFFC0000003000069
:103470007C000000000041FFFFF060000000000041
:10348000380004000000403FFFFE1800000000006C
:103490001FFBFF001C7F4000F800C400000000007C
:1034A0003FFDFF800CFFC000000000000000000096
:1034B000200C00000600400000000000000000009A
:1034C000100C0000030020000000000000000000BD
:1034D000180C00000F003000000000000000000089
:1034E0000E0C0001FCC007F000000000000000000E
:1034F00007FDFF9C003FFFF00000000000000000FF
:10350000040FA7C0000007F8000000000000000042
:10351000041BF80000000638000000000000000056
:10352000023408000000061C00000000000000003B
:10353000022304000000070E00000000000000004D
:103540000220C20000000707000000000000000089
:103550000240320000000703C0000000000000002D
:1035600002400D8000000383E00000000000000026
:1035700003C003C0000000F87F000000000000004E
:1035800003C001E00000003C0F000000000000004C
:103590000380003800000000000000000000000070
:1035A0000300000F00000000000000000000000009
:1035B0000300000780000000000000000000000081
:1035C00007000001C0000000000000000000000033
:1035D00006000000E0000000000000000000000005
:1035E0003E000000E00000000000000000000000BD
:1035F000F8000000200000000000000000000000B3
:1036000000000000000000000000000000000000BA
:1036100000000000000000000000000000000000AA
:10362000000000000000000000000000000000009A
:10363000000000000000000000000000000000008A
:10364000000000000000000000000000000000007A
:10365000000000000000000000000000000000006A
:10366000000000000000000000000000000000005A
:10367000000000000000000000000000000000004A
:10368000000000000000000000000000000000003A
:10369000000000000000000000000000000000002A
:1036A000000000000000000000000000000000001A
:1036B000000000000000000000000000000000000A
:1036C00000000000000000000000000000000000FA
:1036D00000000000000000000000000000000000EA
:1036E00000000000000000000000000000000000DA
:1036F00000000000000000000000000000000000CA
:1037000000000000000000000000000000000000B9
:1037100000000000000000000000000000000000A9
:103720000000000000000000000000000000000099
:103730000000000000000000000000000000000089
:103740000000000000000000000000000000000079
:103750000000000000000000000000000000000069
:103760000000000000000000000000000000000059
:103770000000000000000000000000000000000049
:103780000000000000000000000000000000000039
:10379000000000000000000000000000000000FF2A
:1037A000C00000000000000000000000000001FF59
:1037B000F80000000000000000000000000003FF0F
:1037C000FE0000000000000000000000000007FFF5
:1037D000FF800000000000000000000000000783E0
:1037E000FFE00700000000000000000000001E8352
:1037F0009FFC0E00000000000000000000003E30B2
:1038000003FFFC00000000000000000000007CBE80
:10381000003FF00000000000000000000000803EBB
:103820000007FC0000000000000000000001000F85
:103830000000E000F1F01FE00000000000020303C0
:1038400000002006000FFFFC0000000000038001C4
:10385000800007E00001CFFFFFFFC0000003C000B1
:10386000C0000000000081FFFFFFF80000008000A2
:10387000600000003000807FFFFF3E00000000007D
:10388000600004003000801FFFFF81000000000086
:103890003FFFFF00387F8007FE002000000000008F
:1038A0001FFFBF8018FE8000000000000000000025
:1038B0000C01C00018010000000000000000000022
:1038C0000400C000180E000000000000000000000E
:1038D0000400E0005E03FF000000000000000000A4
:1038E0000400600300E0FF00000000000000000092
:1038F00003FF7F98000FE780000000000000000039
:1039000000C07FC00001C380000000000000000074
:10391000002070000001C1C0000000000000000095
:1039200000107000000380E00000000000000000B4
:1039300000086800000300700000000000000000A4
:103940000004680000070070000000000000000094
:10395000000238000006007C0000000000000000AB
:103960000001F8000007003E000000000000000019
:103970000000FE0400070006000000000000000038
:103980000000FFFFF0070000000000000000000042
:103990000000701FE00300000000000000000000B5
:1039A00000003000000000000000000000000000E7
:1039B00000001800000000000000000000000000EF
:1039C00000000C00000000000000000000000000EB
:1039D00000000E00000000000000000000000000D9
:1039E00000001C00000000000000000000000000BB
:1039F0000000F000000000000000000000000000D7
:103A00000001F000000000000000000000000000C5
:103A100000000000000000000000000000000000A6
:103A20000000000000000000000000000000000096
:103A30000000000000000000000000000000000086
:103A40000000000000000000000000000000000076
:103A50000000000000000000000000000000000066
:103A60000000000000000000000000000000000056
:103A70000000000000000000000000000000000046
:103A80000000000000000000000000000000000036
:103A90000000000000000000000000000000000026
:103AA0000000000000000000000000000000000016
:103AB0000000000000000000000000000000000006
:103AC00000000000000000000000000000000000F6
:103AD00000000000000000000000000000000000E6
:103AE00000000000000000000000000000000000D6
:103AF00000000000000000000000000000000000C6
:103B000000000000000000000000000000000000B5
:103B100000000000000000000000000000000000A5
:103B20000000000000000000000000000000000095
:103B30000000000000000000000000000000000085
:103B40000000000000000000000000000000000075
:103B50000000000000000000000000000000000065
:103B60000000000000000000000000000000000055
:103B70000000000000000000000000000000000045
:103B80000000000000000000000000000000000035
:103B90007E0000000000000000000000000000FFA8
:103BA000FF8000000000000000000000000003FF94
:103BB000FFE000000000000000000000000003FF24
:103BC000FFF000000000000000000000000003B94A
:103BD000FFF80000000000000000000000000700E7
:103BE0003FFC0000000000000000000000001F3843
:103BF00017FE0000000000000000000000001E385A
:103C000001FF0000000007F80000000000003C1C5D
:103C10000C7FC08000001FFE000000000000203E5E
:103C20001C4FFE0000003FFF000000000000804F1E
:103C30000C01F8007F00FFFF8000000000018407F6
:103C400000023804001FFFFFC00000000000F00366
:103C50008C0003C8100303FFE00030000000F000F8
:103C6000C8000008100000FFF81FF000000000006E
:103C70006C4A10281488007FFFFF0000000000003D
:103C8000300000004000001FFFFF80000000000027
:103C90001800000060000007FFE0000000000000C6
:103CA00008400008D0120000FE00000000000000E4
:103CB0000C4B081CD0980000000000000000000021
:103CC0000C423118D09800000000000000000000F5
:103CD0000C0030088C020000000000000000000012
:103CE0000C00300807F8F800000000000000000099
:103CF00007003820007FF0000000000000000000F6
:103D000001E01F00003FE000000000000000000094
:103D100000781000003FC00000000000000000001C
:103D2000005C10000079C0000000000000000000EE
:103D30000007080001E18000000000000000000012
:103D4000004408000783000000000000000000009D
:103D5000002448F00E0700000000000000000000F2
:103D6000002409E01C070000000000000000000023
:103D7000003C2F8038070000000000000000000019
:103D8000003FDE003803C00000000000000000001B
:103D9000000E07003003C00000000000000000001B
:103DA000000000F0000180000000000000000000A2
:103DB0000000003E000000000000000000000000C5
:103DC0000000000E000000000000000000000000E5
:103DD000000000078000000000000000000000005C
:103DE0000000000380000000000000000000000050
:103DF0000000000380000000000000000000000040
:103E000000000002000000000000000000000000B0
:103E100000000000000000000000000000000000A2
:103E20000000000000000000000000000000000092
:103E30000000000000000000000000000000000082
:103E40000000000000000000000000000000000072
:103E50000000000000000000000000000000000062
:103E60000000000000000000000000000000000052
:103E70000000000000000000000000000000000042
:103E80000000000000000000000000000000000032
:103E90000000000000000000000000000000000022
:103EA0000000000000000000000000000000000012
:103EB0000000000000000000000000000000000002
:103EC00000000000000000000000000000000000F2
:103ED00000000000000000000000000000000000E2
:103EE00000000000000000000000000000000000D2
:103EF00000000000000000000000000000000000C2
:103F000000000000000000000000000000000000B1
:103F100000000000000000000000000000000000A1
:103F20000000000000000000000000000000000091
:103F30000000000000000000000000000000000081
:103F40000000000000000000000000000000000071
:103F50000000000000000000000000000000000061
:103F60000000000000000000000000000000000051
:103F70000000000000000000000000000000000041
:103F800001F8000000000000000000000000000137
:103F9000BFFF00000000000000000000000000DF84
:103FA000FFFFC0000000000000000000000001FF53
:103FB000FFFFE0000000000000000000000001FF23
:103FC000FFFFE0000000000000000000000001C151
:103FD000FFFFF000000000000000000000000320D0
:103FE0001FFEF000000000000000000000000FB8FD
:103FF0001FFE1000000000000000000000000F1C69
:1040000000FFC80000000000000000000000162EA5
:104010000C7FF00000000FFC000000000000303FAB
:104020001C4F000000003FFE000000000000602761
:104030000C0040006101FFFF000000000000C7030A
:1040400080021804003FFFFF8000000000007C0198
:10405000CC0003E8100F81FFC000000000007C00CE
:10406000C80000081002007FF000000000000000FF
:104070006C4A1028D488001FFF00000000000000D8
:1040800020000000C000000FFFF000000000000052
:104090003C00000180020003FFFFFE000000000062
:1040A0001C4000091000000007FFE00000000000B5
:1040B0001C4B081FB0F000000000000000000000D2
:1040C0001C42311990F000000000000000000000C8
:1040D0002C003008FC000000000000000000000080
:1040E0001E003808FC33C000000000000000000083
:1040F0000F0C1800740FE00000000000000000002A
:104100000DFC1800040F80000000000000000000FB
:1041100018781000121F00000000000000000000CE
:10412000418420000F7C000000000000000000031C
:10413000C00420000FF0000000000000000000019B
:10414000800020003F800000000000000000000010
:10415000C0034001FF00000000000000000000005C
:104160007002400F0E000000000000000000000080
:104170003C81C01E0E000000000000000000000096
:104180000FF1C01C0E000000000000000000000045
:104190000001FFF800000000000000000000000027
:1041A000000003800000000000000000000000008C
:1041B00000000000000000000000000000000000FF
:1041C00000000000000000000000000000000000EF
:1041D00000000000000000000000000000000000DF
:1041E00000000000000000000000000000000000CF
:1041F00000000000000000000000000000000000BF
:1042000000000000000000000000000000000000AE
:10421000000000000000000000000000000000009E
:10422000000000000000000000000000000000008E
:10423000000000000000000000000000000000007E
:10424000000000000000000000000000000000006E
:10425000000000000000000000000000000000005E
:10426000000000000000000000000000000000004E
:10427000000000000000000000000000000000003E
:10428000000000000000000000000000000000002E
:10429000000000000000000000000000000000001E
:1042A000000000000000000000000000000000000E
:1042B00000000000000000000000000000000000FE
:1042C00000000000000000000000000000000000EE
:1042D00000000000000000000000000000000000DE
:1042E00000000000000000000000000000000000CE
:1042F00000000000000000000000000000000000BE
:1043000000000000000000000000000000000000AD
:10431000000000000000000000000000000000009D
:10432000000000000000000000000000000000008D
:10433000000000000000000000000000000000007D
:10434000000000000000000000000000000000006D
:10435000000000000000000000000000000000005D
:10436000000000000000000000000000000000004D
:10437000000000000000000000000000000000003D
:10438000000000000000000000000000000000002D
:10439000207FE00000000000000000000000003F5F
:1043A000E7FFEC000000000000000000000001FF3B
:1043B000FFF800000000000000000000000001FF06
:1043C000FFF9C0000000000000000000000001FB39
:1043D000FFFFF8000000000000000000000001C224
:1043E0001FFFFE000000000000000000000003DFCF
:1043F0008BFFE100000000000000000000000F8EB5
:1044000000FFF800000000000000000000000F8F17
:10441000001FC000000000000000000000001E0F90
:10442000000300000000031FF000000000001083E4
:104430008000C00380E01FFFFF80000000002021FB
:10444000C0003C78001FFFFFFFE00000000041803B
:10445000E00000000007FFFFFFF80000000074000C
:1044600060000000C0020001FFFE000000003C00F0
:1044700030000000C00200000FFF00000000180024
:1044800010000400C002000001FFF0000000000066
:104490001FFFFF01807E0000003FE00000000000E1
:1044A0003FFEFF8180FE00000003F80000000000D6
:1044B0004600C001800C0000000000000000000069
:1044C0004600C001C03000000000000000000000F5
:1044D0006600C003C1800000000000000000000171
:1044E000F618600DF1000000000000000000003E22
:1044F000FFFF6770B9000000000000000000001F0F
:10450000CFE06F805980000000000000000000181C
:104510001FC080005F800000000000000000001845
:1045200000C300007FC00000000000000000000C7D
:10453000008C0000FFC00000000000000000000E22
:1045400003E0001FFC000000000000000000000F5E
:10455000E380003EFC0000000000000000000003BB
:10456000E3C1307070000000000000000000000097
:10457000203FFCE0E0000000000000000000000020
:10458000000380E180000000000000000000000047
:104590000000008700000000000000000000000094
:1045A0000000001E000000000000000000000000ED
:1045B0000000007C0000000000000000000000007F
:1045C000000000E00000000000000000000000000B
:1045D000000003C000000000000000000000000018
:1045E00000000000000000000000000000000000CB
:1045F00000000000000000000000000000000000BB
:1046000000000000000000000000000000000000AA
:10461000000000000000000000000000000000009A
:10462000000000000000000000000000000000008A
:10463000000000000000000000000000000000007A
:10464000000000000000000000000000000000006A
:10465000000000000000000000000000000000005A
:10466000000000000000000000000000000000004A
:10467000000000000000000000000000000000003A
:10468000000000000000000000000000000000002A
:10469000000000000000000000000000000000001A
:1046A000000000000000000000000000000000000A
:1046B00000000000000000000000000000000000FA
:1046C00000000000010203040607080900000000C2
:1046D00001020304000000000000000000000000D0
:1046E00000000000000000000000000000000000CA
:1046F00000000000000000000000000C000C000C96
:10470000000C000C000C000C000C000C000C000C49
:104710000000000C000C0000000000000000001B66
:10472000001B001B001B001B00000000000000001D
:104730000000000000000000000000000000000079
:1047400000008019801980198019C07FC07F8019EE
:104750000033C07FC07F00330033003300330000DC
:10476000000000000000001E003F8075806500749E
:10477000003C001E00078005806580658075003F55
:10478000001E0004000400000000007000D840D8A3
:10479000C0D880D900730006000C801BC036C066EC
:1047A000C046C00680030000000000000000001E9C
:1047B000003F003300330033001E000CC03CC066D5
:1047C000806380618063C03E801C000000000000A8
:1047D0000000000C000C000C000C000C000000009D
:1047E00000000000000000000000000000000000C9
:1047F0000000000080000001000300060006000425
:10480000000C000C000C000C000C000C0004000656
:104810000006000300018000002000100018000CBA
:10482000000C000400060006000600060006000654
:104830000004000C000C0018001000200000000C08
:10484000002D003F001E00330000000000000000AB
:104850000000000000000000000000000000000058
:10486000000000000000000C000C000C000CC0FF59
:10487000C0FF000C000C000C000C00000000000049
:104880000000000000000000000000000000000028
:104890000000000000000000000000000000000C0C
:1048A000000C0004000400080000000000000000EC
:1048B00000000000000000000000001E001E0000BC
:1048C00000000000000000000000000000000000E8
:1048D00000000000000000000000000000000000D8
:1048E000000000000000000C000C000000000000B0
:1048F0000000000300030003000600060006000697
:10490000000C000C000C000C00180018001800002F
:10491000000000000000001E003F00338061806145
:104920008061806D806D8061806180610033003FB7
:10493000001E00000000000000000006000E001E27
:1049400000360026000600060006000600060006E7
:104950000006000600060000000000000000001E27
:10496000003F807380618061800100030006000CBD
:10497000001800300060807F807F00000000000091
:104980000000001C003E006300630003000E000EE8
:1049900000038001800180618073003F001E0000E1
:1049A0000000000000000006000E000E001E001EA9
:1049B0000016003600360066807F807F0006000605
:1049C00000060000000000000000007F007F006083
:1049D00000600060006E007F806380018001806164
:1049E0008073003F001E0000000000000000001E59
:1049F000003F803380610060006E007F80738061C3
:104A0000806180618033003F001E000000000000D4
:104A10000000807F807F8001000300030006000605
:104A2000000C000C000C0008001800180018000012
:104A3000000000000000001E003F80638061806174
:104A40000021001E003F8061806180618061003F25
:104A5000001E0000000000000000001E003F007368
:104A60008061806180618073803F801D80018061F2
:104A70000073003F001E0000000000000000000066
:104A8000000000000000000C000C0000000000000E
:104A9000000000000000000C000C000000000000FE
:104AA000000000000000000000000000000C000CEE
:104AB00000000000000000000000000C000C0004DA
:104AC00000040008000000000000000080008003D7
:104AD000000E003800600038000E800380000000E7
:104AE00000000000000000000000000000000000C6
:104AF0000000807F807F00000000807F807F0000BA
:104B000000000000000000000000000000000000A5
:104B10000000000000400070001C0007800100073A
:104B2000001C0070004000000000000000000000B9
:104B30000000001F803FC071C060C000C001800342
:104B40000007000E000C000C0000000C000C000020
:104B5000000000000000001E003F80318071806373
:104B6000806F806D806D806F806700600032003ED6
:104B7000001C0000000000000000000E000E001BE2
:104B8000001B001B001B80318031803F803F803143
:104B9000C060C060C0600000000000000000007C39
:104BA000007E0063006300630063007E007E00639C
:104BB000806180618063007F007E00000000000053
:104BC0000000001E003F80318061006000600060D6
:104BD00000600060006080618031003F001E0000C6
:104BE000000000000000007C007F006380638061A3
:104BF0008061806180618061806100630063007E0C
:104C0000007C0000000000000000807F807F0060CA
:104C1000006000600060007F007F00600060006056
:104C20000060807F807F0000000000000000807F27
:104C3000807F0060006000600060007F007F006097
:104C40000060006000600060006000000000000084
:104C50000000001E003F8031806100600060006045
:104C600080638063806180618031803F001E00002E
:104C700000000000000080618061806180618061CF
:104C80008061807F807F80618061806180618061E0
:104C900080610000000000000000003F003F000CA9
:104CA000000C000C000C000C000C000C000C000CA4
:104CB000000C003F003F00000000000000008001E9
:104CC00080018001800180018001800180018001DC
:104CD000806180618073003F001E000000000000C2
:104CE0000000C0608061006300660066006C0078B0
:104CF000007C00660066006380618061C060000027
:104D000000000000000000600060006000600060C3
:104D10000060006000600060006000600060807FF4
:104D2000807F0000000000000000C071C071C07BE7
:104D3000C07AC06AC06AC06EC064C060C060C06033
:104D4000C060C060C0600000000000000000807112
:104D50008071807980798079806D806D806D8065CB
:104D600080678067806780638063000000000000C8
:104D70000000001E003F003380618061806180611F
:104D800080618061806180610033003F001E00000F
:104D9000000000000000007E007F80638061806171
:104DA00080618063007F007E0060006000600060C2
:104DB00000600000000000000000001E003F003303
:104DC00080618061806180618061806180658067D1
:104DD0000033803F401E0000000000000000007E05
:104DE000007F8063806180618063007F007E006659
:104DF0000063006380618061C0600000000000000B
:104E00000000000E001F8031803100300038001E8D
:104E100000078003806180618031003F001E000038
:104E2000000000000000C0FFC0FF000C000C000CE0
:104E3000000C000C000C000C000C000C000C000C12
:104E4000000C0000000000000000806180618061B3
:104E5000806180618061806180618061806180614A
:104E60008073003F001E0000000000000000C060D2
:104E7000C060C060803180318031001B001B001B8E
:104E8000001B000E000E000E0004000000000000D9
:104E90000000C0C0C0C0C0C0C0C0C0C0C0CC804C3A
:104EA000804C805E805280528073806180610000FF
:104EB000000000000000C0C0806080610033003B43
:104EC000001E000C000C001E001F003B8071806162
:104ED000C0C00000000000000000C0C08061806110
:104EE00000330033001E001E000C000C000C000CF0
:104EF000000C000C000C0000000000000000803FCF
:104F0000803F8001000300030006000C000C001825
:104F1000001800300060807F807F000000000000EB
:104F2000000F000F000C000C000C000C000C000C1B
:104F3000000C000C000C000C000C000C000C000C11
:104F4000000F000F0000001800180018000C000CE3
:104F5000000C000C0006000600060006000300031B
:104F60000003000000000000001E001E00060006F6
:104F70000006000600060006000600060006000601
:104F80000006000600060006001E001E0000000CC1
:104F9000000C001E001200330033806180610000AD
:104FA0000000000000000000000000000000000001
:104FB00000000000000000000000000000000000F1
:104FC00000000000000000000000000000000000E1
:104FD000E0FF0000000000380018000C0000000096
:104FE00000000000000000000000000000000000C1
:104FF00000000000000000000000000000000000B1
:105000000000001F803F80618001801F803F806121
:105010008063807FC0380000000000000000006056
:10502000006000600060006E007F807380618061BE
:10503000806180618073007F006E000000000000CE
:1050400000000000000000000000001E003F807310
:1050500080610060006080618073003F001E00007E
:105060000000000000008001800180018001801D9F
:10507000803F807380618061806180618073803F48
:10508000801D000000000000000000000000000083
:105090000000001E003F00738061807F807F006001
:1050A0008071003F001E0000000000000000C007EB
:1050B000C00F000C000C807F807F000C000C000CE7
:1050C000000C000C000C000C000C000000000000A4
:1050D0000000000000000000801D803F80738061A0
:1050E0008061806180618073803F801D800180636A
:1050F000007F003E00000060006000600060006F04
:10510000807F807180618061806180618061806169
:1051100080610000000000000000000600060000A2
:105120000000003E003E00060006000600060006E5
:105130000006000600060000000000000006000651
:1051400000000000003E003E0006000600060006CB
:10515000000600060006000600060046007E003C31
:105160000000006000600060006080610063006615
:10517000006C007C0076006300638061C06000000A
:10518000000000000000003E003E00060006000691
:1051900000060006000600060006000600060006DF
:1051A00000060000000000000000000000000000F9
:1051B000000080DDC0FFC0CEC0CCC0CCC0CCC0CC15
:1051C000C0CCC0CCC0CC000000000000000000003B
:1051D000000000000000006F807F807180618061AE
:1051E000806180618061806180610000000000005A
:1051F00000000000000000000000001E003F80735F
:1052000080618061806180618073003F001E0000CA
:10521000000000000000000000000000006E007FA1
:10522000807380618061806180618073007F006E27
:1052300000600060006000600000000000000000EE
:10524000801D803F80738061806180618061807398
:10525000803F801D800180018001800100000000EE
:105260000000000000000067803F0039003000307F
:10527000003000300030003000300000000000003E
:1052800000000000000000000000001E803F806160
:105290000060007F803F80018061007F001E000071
:1052A0000000000000000000000800180018007F47
:1052B000007F001800180018001800180018801F40
:1052C000800F00000000000000000000000000004F
:1052D00000008061806180618061806180618061A7
:1052E0008063807F803D000000000000000000001F
:1052F000000000000000C060803180318031001B60
:10530000001B001B000E000E000600000000000045
:105310000000000000000000000080DD80DD80DD76
:10532000005500550055007700770022002200004C
:10533000000000000000000000000000000080618C
:1053400000330033001E000C000C001E003300333D
:10535000806100000000000000000000000000006C
:1053600080618061803100330033001B001B001B13
:10537000000E000E000E001C007C007000000000FB
:10538000000000000000C07FC07F80010003000615
:10539000000C00180030C07FC07F0000000000003B
:1053A0008003800700060006000600060006000EC7
:1053B000001C001C000E0006000600060006000689
:1053C00080078003000600060006000600060006AF
:1053D000000600060006000600060006000600069D
:1053E00000060006000600060038003C000C000C19
:1053F000000C000C000C000E00070007000E000C53
:10540000000C000C000C000C003C003800000000F8
:10541000000000000000000000008038807F00478E
:10542000000000000000000000000000000000007C
:10543000505400080000002020000000BE170008A3
:10544000705400082000002058440000CE170008C7
:105450000100000010000000000000000024F40023
:105460000B120000D44600080000000000000000FD
:040000050800018965
:00000001FF
